:105C000055425C0135D0085A8245121C3140005C77
:105C10003F4000000F9308249242121C5C012F8326
:105C20009F4FC663001CF8233F4012000F930724C8
:105C30009242121C5C011F83CF43001CF923B01257
:105C4000525CB012165EFD3F32D0F000FD3F304096
:105C5000C463B240805A5C01F2D00C000702D24209
:105C60001D021D02F2D00C001902F2D00C001B0222
:105C7000F2D00C000302F2D0F0FF6402F240F8FF11
:105C800062022F43B012E05EB24010004203B24005
:105C900070175203B240F402400382430E1C824349
:105CA000101C32D2034330411F420C1C0F930824B6
:105CB0001F42081C0F9304209243081C1F433041CD
:105CC0001F420A1C0F930A241F42061C0F93042034
:105CD0009243061C2F4330410F4330410F43304164
:105CE0001F420C1C0F9308201F42081C0F93042412
:105CF0008243081C1F4330411F420A1C0F930A2095
:105D00001F42061C0F9304248243061C2F4330417C
:105D10000F4330410F433041B012A85C0F9303246E
:105D200002388243101CB012E05C1F930D381E42F3
:105D3000101C3E900B00022C824F001C8243101C52
:105D40008243081C8243061C3041B012A85C0F93AA
:105D50000A2409381F42101C3F9006000228924373
:105D6000021C8243101CB012E05C1E42001C0F9EFD
:105D70000B201E42101C3E900B00042C9243041C6E
:105D8000824F001C8243101C30411F42021C0F93A3
:105D900012241E433F402000B012C85E1F42101C58
:105DA0003F900B0037280E433F402000B012C85EE2
:105DB0008243021C133C1F42001C2F9314201E43DD
:105DC0003F401000B012C85E1F42101C3F901F00E1
:105DD00021280E433F401000B012C85E8243041CCD
:105DE0008243001C30411F42001C1F9313201E439E
:105DF0003F404000B012C85E1F42101C3F901F0081
:105E000009280E433F404000B012C85E8243041C84
:105E10008243001C30411F42041C0F930324B01224
:105E20008A5D30411F42001C0F930320B012185DA1
:105E30003041B0124A5D30410F1292530E1C1F4286
:105E40000E1C3F901900042082430E1C9253101C1C
:105E50003F4100131F155F421D026F921A247F926B
:105E60003120F2F0F7FF1D021E420C1C1F430E935F
:105E700001240F43824F0C1C1F420C1C0F9305245E
:105E80005F4219027FF0F7FF1B3C5F4219027FD28D
:105E9000173CF2F0FBFF1D021E420A1C1F430E932B
:105EA00001240F43824F0A1C1F420A1C0F93052432
:105EB0005F4219027FF0FBFF033C5F4219026FD281
:105EC000C24F19021E1700135D4262024DCF0E939E
:105ED00002204F4F013C4F434FDDC24F6202304121
:105EE0002F9328207F400300B012365FF2D00C00C1
:105EF0004A021E433F401000B012C85E3F4000C03F
:105F0000B012FC610E433F401000B012C85EB2F008
:105F1000FFBF6C011F4268013FF0A8FF3FD0500057
:105F2000824F68011F4268013FF08FFF3FD0500051
:105F3000824F680130415B151E4220013EF0030094
:105F40000D433FF00300BF3C0E9F702C1E534A4E82
:105F5000F240A5FF210118422E01B2F088CC2E019B
:105F6000174224011642260182432C014C4A3CD0A0
:105F70000044824C2401B2B010002C01FC27B2F086
:105F8000EFFF2C0119422C0139F020001224B2F04D
:105F9000EFFF2C0182472401B2B010002C01FC2736
:105FA000B2F088FF2C0182482E01C24321011D431B
:105FB0008A3C194224014B4A8B1009DB8249240197
:105FC000B2B010002C01FC2719422C0139F0EFFF70
:105FD00082492C01C24A20010CDB824C260192B37B
:105FE0002C01FD27B2F0FEFF2C011A4226013AF0E7
:105FF0000703824A26011C4226010B463BF0F8FCAF
:106000000BDC824B2601B2F0070324011B42240162
:106010000C473CF0F8FC0CDB824C240192B32C01C1
:106020004B20B2B010002C01F927463C3E53494E9C
:10603000F240A5FF210118422E01B2F088CC2E01BA
:10604000174224011B422601B2F0CCFF2C014A4921
:106050000C4A3CD000448A100CDA824C2401824C59
:106060002601B2B010002C01FC2792B32C01F927B5
:10607000B2F0EEFF2C01C24920011A4226013AF08B
:106080000703824A26011C4226013BF0F8FC0BDC88
:10609000824B2601B2F0070324011B4224010C4766
:1060A0003CF0F8FC0CDB824C240192B32C01042060
:1060B000B2B010002C01F927B2F088FF2C01824801
:1060C0002E01C24321010F9E03240D933D271D4342
:1060D0000F4D561730411E426C013EF0C0003E90FD
:1060E000C0000A24F2D0C0FF6C01063CB2F0FDFFF4
:1060F0006E01B2F0FDFF0201A2B36E01F7231E4252
:106100006C013EF03FFF0EDF824E6C0130411D42BC
:106110006C013DF0C0003D90C0000324F2D0C0FFF0
:106120006C01B2F0FDFF6E01B2F0FDFF0201A2B3FF
:106130006E0102243E53F5231D426C013DF03FFFEA
:106140000DDF824D6C011F430E9301240F4330413C
:106150001E426C013EF0C0000E9F0524B2F03FFFCE
:106160006C0182DF6C01B2F0FEFF6C01B2D0200046
:106170006C01063CB2F0F9FF6E01B2F0FDFF0201C6
:106180001F426E013FB00600F52330411D426C01F5
:106190003DF0C0000D9F0524B2F03FFF6C0182DF8F
:1061A0006C01B2F0FEFF6C01B2D020006C01B2F0C5
:1061B000F9FF6E01B2F0FDFF02011F426E013FB018
:1061C000060004243E53F3231F4330411F430E9324
:1061D00001240F433041B2D010006C01063CB2F0F4
:1061E000F9FF6E01B2F0FDFF02011F426E013FB0E8
:1061F0000600F523304192D36C0130411E426C0100
:106200003EF000C00E9F0524B2F0FF3F6C0182DF1C
:106210006C01B2F0FFFE6C01063CB2F0F7FF6E01BC
:10622000B2F0FDFF0201B2B26E01F72330411D4210
:106230006C013DF000C00D9F0524B2F0FF3F6C01E2
:1062400082DF6C01B2F0FFFE6C01B2F0F7FF6E016D
:10625000B2F0FDFF0201B2B26E0104243E53F523F9
:106260001F4330411F430E9301240F433041B2D0EE
:1062700000106C01063CB2F0F7FF6E01B2F0FDFFBA
:106280000201B2B26E01F7233041B2D000016C01BD
:1062900030411B150D423DF040003F90813E0528E6
:1062A0005E031A433C400010063C5F020A43FA3F7B
:1062B0003C5000105E033E900102FA2F32D04000A5
:1062C000824360011B4264013BF000FC824B64018D
:1062D0003E530EDC824E64013F907702032C8243D2
:1062E00062012D3C3F90E204042CB2401000620198
:1062F000263C3F90C409042CB240200062011F3CA0
:106300003F908813042CB24030006201183C3F904B
:106310001027042CB24040006201113C3F90204EF7
:10632000042CB240500062010A3C3F90409C042C77
:10633000B24060006201033CB2407000620132C0B2
:106340004000063CB2F0FEFF6E01B2F0FDFF02011C
:1063500092B36E01F72302DD1F4268013FF088FF10
:106360001A9303203FD03300023C3FD04400824FB9
:1063700068011A17304121830D4E5D0E5D02814D7B
:106380000000B0129262053C3F4009001F83FE23CB
:1063900003432F410E4F3E53814E00000F93F423D1
:1063A00021533041B2F0F0FF6E01B2F0FDFF020167
:1063B000A2B3020102243F53F5231F426E013FF0B6
:0663C0000F003041001344
:10FF80004E5C4E5C4E5C4E5C4E5C4E5C4E5C4E5C21
:10FF90004E5C4E5C4E5C4E5C4E5C4E5C4E5C4E5C11
:10FFA0004E5C4E5C4E5C4E5C4E5C4E5C4E5C4E5C01
:10FFB0004E5C4E5C4E5C4E5C4E5C4E5C4E5C4E5CF1
:10FFC0004E5C4E5C4E5C4E5C4E5C4E5C4E5C4E5CE1
:10FFD0004E5C4E5C545E4E5C4E5C4E5C4E5C4E5CC9
:10FFE0004E5C4E5C4E5C4E5C4E5C4E5C385E4E5CD5
:10FFF0004E5C4E5C4E5C4E5C4E5C4E5C4E5C005CFF
:0400000300005C009D
:00000001FF
